:100000000C9434000C9451000C9451000C94510049
:100010000C9451000C9451000C9451000C9451001C
:100020000C9451000C9451000C9451000C9451000C
:100030000C9451000C9451000C9451000C945100FC
:100040000C9451000C9451000C9451000C945100EC
:100050000C9451000C9451000C9451000C945100DC
:100060000C9451000C94510011241FBECFEFD8E026
:10007000DEBFCDBF12E0A0E0B1E0EEEFFAE102C0DA
:1000800005900D92AA38B107D9F722E0AAE8B2E0AC
:1000900001C01D92AE3AB207E1F70E94E3060C944C
:1000A0007D0D0C9400001092B90088E98093B8008F
:1000B00084E08093BC0008958091BC0087FFFCCF52
:1000C000089584EA8093BC000C945C0084E98093DA
:1000D000BC008091BC0084FDFCCF089584EC80932B
:1000E000BC000E945C008091BB00089584E880936E
:1000F000BC000E945C008091BB0008958093BB000F
:1001000084E88093BC000C945C000F931F93CF9302
:10011000DF9300D000D00F92CDB7DEB78A836C8317
:100120008A0129830E9461008A81880F8A830E9444
:100130007E008C810E947E000E9466000E94610009
:100140008A8181600E947E000C831D8300E010E0A4
:10015000E981E150FF0BEA83FB83F9810F17110559
:1001600051F08A819B818017910781F40E9476006B
:10017000EC81FD8180830F900F900F900F900F9076
:10018000DF91CF911F910F910C9466000E946E0039
:10019000EC81FD818193EC83FD830F5F1F4FDDCFE9
:1001A000CF93DF9300D00F92CDB7DEB789836A83F8
:1001B0004B830E9461008981880F0E947E008A81A2
:1001C0000E947E008B810E947E000F900F900F9006
:1001D000DF91CF910C94660080E480937C0087E8E7
:1001E00080937A000895811106C080917A0080641E
:1001F00080937A00089580917A008F7BF9CF909157
:100200007C00907F892B80937C0080917A008064B1
:1002100080937A0080917A0086FDFCCF81E00E9475
:10022000F300809178009091790008951092C500B4
:1002300087E68093C40088E08093C10086E08093C5
:10024000C20008959091C00095FFFCCF8093C60036
:100250000895CF93DF93EC018881811103C0DF9172
:10026000CF91089521960E942201F6CFEF92FF923E
:100270000F931F93CF93DF9300D000D000D0CDB762
:10028000DEB78C0145E050E060E370E07E018FEF67
:10029000E81AF80AC7010E946E0D1E8201151105A9
:1002A00081F480E30E9422010F900F900F900F9035
:1002B0000F900F90DF91CF911F910F91FF90EF90D2
:1002C0000895F7019E012A5F3F4FC8016AE070E080
:1002D0000E944509805DD9018E939D01EA16FB06B7
:1002E00019F00A30110578F480E090E02081203385
:1002F00029F43196019685309105C1F78E0D9F1D29
:100300000E942901D1CF8B01E0CFCF93DF9300D0A2
:1003100000D000D0CDB7DEB769837A838B839C830E
:1003200020E030E048EC52E40E94010D0E94E20B14
:10033000CB0164E670E00E9445098D839E8369814C
:100340007A818B819C810E94E20BCB010E94360155
:100350008EE20E9422018D819E810E9436018D8154
:100360009E810A9758F480E30F900F900F900F90A2
:100370000F900F90DF91CF910C9422010F900F906E
:100380000F900F900F900F90DF91CF9108958DE710
:1003900092E00C94290181E892E00E9429010C94DA
:1003A000C70186E892E00C942901CF93DF93CDB783
:1003B000DEB768970FB6F894DEBF0FBECDBF28E159
:1003C000AE014F5F5F4F68E887E70E948500898133
:1003D000809392028A81809393028B81809394020E
:1003E0008C81809395028D81809396028E8180937B
:1003F00097028F81809398028885809399028985DE
:1004000080939A028A8580939B028B8580939C02BD
:100410008C8580939D028D8580939E028E8580932E
:100420009F028F858093A00288898093A102898989
:100430008093A2028A898093A3028B898093A4026D
:100440008C898093A5028D898093A6028E898093E2
:10045000A7028F898093A802888D8093A90268964D
:100460000FB6F894DEBF0FBECDBFDF91CF910895D8
:100470008F929F92AF92BF92CF92DF92EF92FF92B4
:100480000F931F93CF93DF9300D000D000D00F9233
:10049000CDB7DEB745E264EF87E70E94D0008FE377
:1004A0009CE90197F1F700C0000023E0AE014F5F27
:1004B0005F4F6AEF87E70E9485008981A0E0B0E086
:1004C000982F80E024E0880F991FAA1FBB1F2A9550
:1004D000D1F74A8150E060E070E034E0440F551FEE
:1004E000661F771F3A95D1F7842B952BA62BB72B38
:1004F0002B8122952F704C015D01822A9401A50168
:1005000060919202709193026B01E12CF12CE4E076
:10051000B695A79597958795EA95D1F74C015D011A
:10052000861A970AA108B1088C829D82AE82BF828A
:10053000F3E05595479537952795FA95D1F7CC0C6B
:10054000DD1CEE1CFF1C2C193D094E095F09A09112
:100550009402B09195020E946409C72ED82EE92E0C
:10056000990FFF08B3E0E594D794C794BA95D9F7EB
:100570009401A501B401C5010E943509272F382F28
:10058000492F990F550B14E04595379527951A95E6
:10059000D9F7A0919602B09197020E946409672F43
:1005A000782F892F990F990B06E085957795679598
:1005B0000A95D9F79601A701260F371F481F591F23
:1005C0002093AA023093AB024093AC025093AD0249
:1005D000A5E0B0E00E94590960587F4F8F4F9F4FB0
:1005E000672F782F892F990F990B0E94130C20E009
:1005F00030E048EC52E40E94700B27960FB6F89456
:10060000DEBF0FBECDBFDF91CF911F910F91FF9045
:10061000EF90DF90CF90BF90AF909F908F90089514
:100620002F923F924F925F926F927F928F929F9202
:10063000AF92BF92CF92DF92EF92FF920F931F93F0
:10064000CF93DF93CDB7DEB76B970FB6F894DEBFCD
:100650000FBECDBF23E0AE014F5F5F4F67EF87E76F
:100660000E9485008091AA029091AB02A091AC02F9
:10067000B091AD02CB2ECC0CCC089C01AD016C2D01
:100680007C2D8C2D9C2D345F4140510961097109ED
:10069000810991092C833D834E835E876F87788B18
:1006A000898B9A8B59016A017B018C010E946C092C
:1006B0002F83388749875A876B877C878D879B8BE9
:1006C00020919A0230919B02932F990F990B492FF9
:1006D000592F692F792F892F0E946C090CE00E94F5
:1006E0009B0A1C8A3D8B4E8B5F8B688F798F8A8F1C
:1006F0009B8F20919C0230919D02932F990F990B13
:10070000AF80B884C984DA84EB84FC840D851B89AE
:10071000492F592F692F792F892F0E946C09232F78
:10072000342F452F562F672F782F892F990F990B2C
:10073000AC88BD88CE88DF88E88CF98C0A8D1B8D4B
:100740000E94D10A70588F4F9F4F2090980230908E
:1007500099025101C12CD12C760186010E946C09AD
:1007600001E20E94B40A822E332E242E5F8B688F02
:10077000798F8A8F9B8FA0E00E94E30A09F45AC107
:100780002091A2023091A302932F990F990BAF8071
:10079000B884C984DA84EB84FC840D851B89492FD5
:1007A000592F692F792F892F0E946C092F83388741
:1007B00049875A876B877C878D879B8B2091A00206
:1007C0003091A102932F990F990BAC80BD80CE8000
:1007D000DE84EF84F88809891A89492F592F692FF7
:1007E000792F892F0E946C0901E10E949B0AAF803A
:1007F000B884C984DA84EB84FC840D851B890E944B
:10080000D10A59016A017B01982E192F498160E0B4
:1008100070E0542F40E084E0440F551F661F771F9F
:100820008A95D1F78A8190E0A0E0B0E024E0880FBB
:10083000991FAA1FBB1F2A95D1F7842B952BA62B96
:10084000B72B2B8122952F70AC01BD01422B80E08C
:1008500090E0A0E1B0E0841B950BA60BB70B4B2EEC
:10086000440C44089C01AD01642D742D842D942DFD
:100870000FE10E949B0A3901542E452EB62FA72F57
:10088000F82FE92F20919E0230919F02932F990F0C
:10089000990B492F592F692F792F892F03E20E9435
:1008A0009B0A092D0E94D10A59016A017B018C0122
:1008B0009301452D542D6B2F7A2F8F2F9E2F0E9441
:1008C000DA0AF5E3AF2EFCE0BF2E6301730183016A
:1008D0000E946C09A82CB32CC22CDF88E88CF98C00
:1008E0000A8D1B8D0E94C609922E832E742E652EB2
:1008F000562E472E382E292E0DE00E94B40A2F8343
:10090000388749875A876B877B8B8C879D87209197
:10091000A8023091A902932F990F990BAF80B88448
:100920006A017B01082F1D85492F592F692F792FC7
:10093000892F0E946C090E946C0909E10E94B40A87
:10094000A92CB82CC72CD62CE52CF42C032D122D59
:100950000E94D10A2F83388749875A876B877C8703
:100960008D879B8B2091A6023091A702932F990F20
:10097000990B492F592F692F792F892F0E946C09C4
:1009800003E10E94B40A59016A017B018C012F81A5
:10099000388549855A856B857C858D859B890E9424
:1009A000D10A232F342F452F562F672F782F892FC9
:1009B000990F990B59016A017B01E82F192F20919A
:1009C000A4023091A502932F990F990B492F592F0B
:1009D000692F792F892F04E00E949B0A0E2F0E9415
:1009E000D10A0E940B0C20E030E040E85BE30E945B
:1009F000010D562F472F382F292F652F742F832F46
:100A0000922F6B960FB6F894DEBF0FBECDBFDF916D
:100A1000CF911F910F91FF90EF90DF90CF90BF90FB
:100A2000AF909F908F907F906F905F904F903F908E
:100A30002F900895A6019601E0CF8FE59AEE0197D9
:100A4000F1F700C000000E94610080E70E947E0074
:100A50008CEA0E947E0083E30E947E0080E00E9478
:100A60007E000E9466009FEF21EE84E091502040BE
:100A70008040E1F700C000000895CF92DF92EF922E
:100A8000FF921F93CF93DF93EC010E941D0515E0A9
:100A90006E0186E0C80ED11C0E94610081E70E94B1
:100AA0007E007E010E946E00F70181937F01EC15AC
:100AB000FD05C1F70E9476008E830E946600888142
:100AC00087FD02C080E003C0115031F781E0DF9163
:100AD000CF911F91FF90EF90DF90CF9008950F93EB
:100AE0001F93CF93DF93CDB7DEB761970FB6F8941E
:100AF000DEBF0FBECDBF8C879D87CE0101960E94C1
:100B00003D05182F811181C00C81802F8F7090E0DE
:100B10002D813E81322723273227B9010E94110CF3
:100B200020E030E040E855E30E94010D20E030E095
:100B300048E453E40E94010D20E030E048E452E430
:100B40000E94FE0A688779878A879B8720E030E0C9
:100B500040E252EC0E946B0B87FD63C020E030E066
:100B60004AEA52E4688579858A859B850E94FC0C57
:100B700018160CF456C06A8180E090E0762F60E091
:100B800024E0660F771F881F991F2A95D1F72B81C4
:100B900030E040E050E0E4E0220F331F441F551FD7
:100BA000EA95D1F7622B732B842B952B02950F704E
:100BB000602B0E94110C20E030E040E855E30E94D9
:100BC000010D20E030E048EC52E40E94010D6E87F8
:100BD0007F87888B998B20E030E048EC52E40E94BC
:100BE000FC0C1816F4F088859985AA85BB85EC85E0
:100BF000FD8580839183A283B3838E859F85A88999
:100C0000B98984839583A683B783812F61960FB6B4
:100C1000F894DEBF0FBECDBFDF91CF911F910F9132
:100C2000089511E0F2CFCF93DF930F92CDB7DEB7E7
:100C30002FEF81EE94E0215080409040E1F700C01A
:100C400000000E94610080E70E947E0081E70E9410
:100C50007E000E9466000E94610081E70E947E0083
:100C60000E946E0089830E946600298123FD16C0C0
:100C70000E94610080E70E947E008EEB0E947E0051
:100C800088E00E947E0080E00E947E000E94660054
:100C90008FE39CE90197F1F700C000000F90DF910E
:100CA000CF910895CF93DF9300D000D000D0CDB77F
:100CB000DEB7CE0101960E943D0581112FC06C81E7
:100CC000862F8F7090E02D813E8132272327322797
:100CD000B9010E94110C20E030E040E855E30E9489
:100CE000010D20E030E048E453E40E94010D20E0D3
:100CF00030E048E452E40E94FE0A562F472F382F76
:100D0000292F652F742F832F922F0F900F900F9004
:100D10000F900F900F90DF91CF91089540E050E039
:100D20002FEB30E8EECFCF93DF9300D000D000D090
:100D3000CDB7DEB7CE0101960E943D0581113EC0C0
:100D40006A8180E090E0762F60E024E0660F771FF4
:100D5000881F991F2A95D1F72B8130E040E050E0A1
:100D6000E4E0220F331F441F551FEA95D1F7622B91
:100D7000732B842B952B2C8122952F70622B0E9434
:100D8000110C20E030E040E855E30E94010D20E026
:100D900030E048EC52E40E94010D562F472F382FC7
:100DA000292F652F742F832F922F0F900F900F9064
:100DB0000F900F900F90DF91CF91089540E050E099
:100DC0002FEB30E8EECFCDB7DEB76C970FB6F894C7
:100DD000DEBF0FBECDBF0E9453000E94EC000E94F8
:100DE00016010E9413060E94D50100E010E0780170
:100DF0001F8A188E198E2FE42A8F67011B8E1C8E76
:100E00001B8A1C8A1D8A8FE48E8B1D821E824701DD
:100E10001F86188A198A9FE49A8B19821A821B826C
:100E20001C821B861C861D862E8719861A8690E8D2
:100E30001F8298870E94C70180E091E00E942901EB
:100E400088EC90E00E94360186E291E00E94290140
:100E500087E491E00E9429018BE291E00E94290140
:100E600080E00E94FF005C018F819885A816B9067A
:100E700010F4AF82B88689859A858A159B0510F48F
:100E8000A986BA868AE491E00E942901C5010E94E0
:100E9000360187E491E00E94290189E591E00E94F2
:100EA00029018F8198850E94360187E491E00E9494
:100EB000290188E691E00E94290189859A850E948E
:100EC000360187E491E00E94290187E491E00E94C5
:100ED000290187E791E00E9429010E9438023B0125
:100EE0005C019B01AC016B857C858D859E850E9494
:100EF000FC0C13012501181624F02B843C844D842E
:100F00005E842B863C864D865E869301A5016981B1
:100F10007A818B819C810E946B0B87FF96C1362D55
:100F2000272D9A2D8B2D39832A839B838C838AE8E6
:100F300091E00E942901B301C5010E94850181EA67
:100F400091E00E9429010E94D10187E491E00E9472
:100F5000290184EA91E00E942901B101C2010E94A5
:100F6000850181EA91E00E9429010E94D10187E474
:100F700091E00E9429018BEB91E00E942901698197
:100F80007A818B819C810E94850181EA91E00E9497
:100F900029010E94D10187E491E00E94290187E4A0
:100FA00091E00E9429010E9410031B012C019B016A
:100FB000AC016F85788989899A890E94FC0C31017E
:100FC0005201181624F06F847888A988BA886F8631
:100FD000788AA98ABA8A9101A2016D817E81C401B1
:100FE0000E946B0B87FF36C1322D232D942D852D4A
:100FF0003D832E83892E982E82ED91E00E94290157
:1010000020E030E048EC52E4B101C2010E94700BD4
:101010000E94850186EE91E00E9429010E94D10183
:1010200087E491E00E9429018BEE91E00E94290162
:1010300020E030E048EC52E4B301C5010E94700B9F
:101040000E94850186EE91E00E9429010E94D10153
:1010500087E491E00E9429018FEF91E00E9429012D
:1010600020E030E048EC52E46D817E81C4010E94B2
:10107000700B0E94850186EE91E00E9429010E947A
:10108000D10187E491E00E94290187E491E00E9468
:10109000290183E192E00E9429018AE892E00E94FE
:1010A0006F058111DFC060908A0270908B02A09062
:1010B0008C02B0908D029301A5016B897C898D898A
:1010C0009E890E94FC0C13012501181624F02B8820
:1010D0003C884D885E882B8A3C8A4D8A5E8A9301C3
:1010E000A501B6018B8D9C8D0E946B0B87FFB7C04D
:1010F000962D872DAB8EBC8EC92ED82E8AE891E016
:101100000E942901B301C5010E94850181EA91E095
:101110000E9429010E94D10187E491E00E942901E7
:1011200084EA91E00E942901B101C2010E94850177
:1011300081EA91E00E9429010E94D10187E491E0B7
:101140000E9429018BEB91E00E942901B6018B8D51
:101150009C8D0E94850181EA91E00E9429010E94F4
:10116000D10187E491E00E94290187E491E00E9487
:10117000290160908E0270908F02A0909002B09032
:1011800091029301A5016F89788D898D9A8D0E94B6
:10119000FC0C13012501181624F02F88388C498C7B
:1011A0005A8C2F8A388E498E5A8E9301A501612F51
:1011B000702F8F2D9E2D0E946B0B87FF04C0162D64
:1011C000072DFA2CEB2C85E292E00E942901B30155
:1011D000C5010E94850189E392E00E9429010E94D5
:1011E000D10187E491E00E9429018EE392E00E9400
:1011F0002901B101C2010E94850189E392E00E94A8
:1012000029010E94D10187E491E00E94290182E531
:1012100092E00E942901612F702F8F2D9E2D0E9438
:10122000850189E392E00E9429010E94D10187E4AF
:1012300091E00E9429019FEF23EC89E0915020402A
:101240008040E1F700C00000F5CD39812A819B8103
:101250008C8169CE3D812E81982D892DC9CE9C2D02
:101260008D2D4ACF86E692E0E4CFDB018F939F93EA
:101270000E945909BF91AF91A29F800D911DA39F1C
:10128000900DB29F900D11240895AA1BBB1B51E134
:1012900007C0AA1FBB1FA617B70710F0A61BB70BE6
:1012A000881F991F5A95A9F780959095BC01CD018B
:1012B00008950E94EF0AA59F900DB49F900DA49FE2
:1012C000800D911D11240895B7FF0C9459090E94B7
:1012D0005909821B930B0895DF93CF931F930F93AC
:1012E0009A9DF02D219FF00D8B9DF00D8A9DE02D94
:1012F000F10D039FF00D029FE00DF11D4E9DE00DDD
:10130000F11D5E9DF00D4F9DF00D7F936F93BF9289
:10131000AF925F934F93D5010E94EF0A8B01AC010E
:10132000D7010E94EF0AEB01E80FF91FD6010E94D6
:10133000BB092F913F91D6010E94EF0AC60FD71F1C
:10134000E81FF91FAF91BF910E94BB092F913F91F8
:101350000E94EF0AC60FD71FE81FF91FD6010E948F
:10136000EF0AE60FF71F9801BE01CF010F911F9101
:10137000CF91DF9108950E94EF0A460F571FC81FB3
:10138000D91F08F431960895689401C0E894F92FA4
:10139000F12B12F00C94F809A0E0B0E0E2EDF9E0D6
:1013A0000C946A0A092E059422F40E94540A11230F
:1013B00092F4F0E80F26FFEFE094F094009510957A
:1013C000B094C094D094A194BF0ACF0ADF0AEF0A68
:1013D000FF0A0F0B1F0B0E94030A07FC0E94540A0E
:1013E000CDB7DEB7ECE00C94860A689401C0E894AF
:1013F0008F929F92CF93DF930E94030ADF91CF9148
:101400009F908F90089588249924F401E401B0E41A
:101410009F93AA279A158B049C04ED05FE05CF0522
:10142000D007A10798F4AD2FDC2FCF2FFE2FE92D89
:10143000982C892E982F872F762F652F542F432F86
:10144000322F2227B85031F7BF9127C01B2EBF91F2
:10145000BB27220F331F441F551F661F771F881F8E
:10146000991F881C991CEE1FFF1FCC1FDD1FAA1F90
:10147000BB1F8A149B04EC05FD05CE05DF05A00704
:10148000B10748F08A189B08EC09FD09CE09DF096D
:10149000A00BB10B21601A94E1F62EF49401AF0178
:1014A000BE01CD01000C08956095709580959095D2
:1014B00030954095509521953F4F4F4F5F4F6F4F5F
:1014C0007F4F8F4F9F4F08952F923F924F925F9281
:1014D0006F927F928F929F92AF92BF92CF92DF9244
:1014E000EF92FF920F931F93CF93DF93CDB7DEB7A9
:1014F000CA1BDB0B0FB6F894DEBF0FBECDBF09943D
:101500002A88398848885F846E847D848C849B8493
:10151000AA84B984C884DF80EE80FD800C811B81A1
:10152000AA81B981CE0FD11D0FB6F894DEBF0FBED0
:10153000CDBFED010895002E083090F0982F872F31
:10154000762F652F542F432F322F22270850F4CFA8
:10155000220F331F441F551F661F771F881F991FB7
:101560000A95B2F7002D089597FD1094002E0830CB
:1015700098F00850232F342F452F562F672F782FA0
:10158000892F912DF4CF1594979587957795679529
:1015900057954795379527950A95AAF71124002D59
:1015A00008952A0D3B1D4C1D5D1D6E1D7F1D801F66
:1015B000911F08952A193B094C095D096E097F099D
:1015C000800B910B08950024A7FD00942A17300585
:1015D0004005500560057005800590050895A29F9F
:1015E000B001B39FC001A39F700D811D1124911DF7
:1015F000B29F700D811D1124911D08955058BB2775
:10160000AA270E94160B0C94C20C0E94B40C38F04E
:101610000E94BB0C20F039F49F3F19F426F40C947F
:10162000B10C0EF4E095E7FB0C94AB0CE92F0E9493
:10163000D30C58F3BA17620773078407950720F095
:1016400079F4A6F50C94F50C0EF4E0950B2EBA2F58
:10165000A02D0B01B90190010C01CA01A0011124B8
:10166000FF27591B99F0593F50F4503E68F11A1664
:10167000F040A22F232F342F4427585FF3CF4695F5
:1016800037952795A795F0405395C9F77EF41F1617
:10169000BA0B620B730B840BBAF09150A1F0FF0FE1
:1016A000BB1F661F771F881FC2F70EC0BA0F621FCD
:1016B000731F841F48F4879577956795B795F795BD
:1016C0009E3F08F0B0CF9395880F08F09927EE0F52
:1016D0009795879508950E94870C08F481E00895F6
:1016E0000E94840B0C94C20C0E94BB0C58F00E9408
:1016F000B40C40F029F45F3F29F00C94AB0C51116D
:101700000C94F60C0C94B10C0E94D30C68F3992342
:10171000B1F3552391F3951B550BBB27AA276217ED
:101720007307840738F09F5F5F4F220F331F441FFA
:10173000AA1FA9F335D00E2E3AF0E0E832D091502E
:101740005040E695001CCAF72BD0FE2F29D0660F1B
:10175000771F881FBB1F261737074807AB07B0E85E
:1017600009F0BB0B802DBF01FF2793585F4F3AF064
:101770009E3F510578F00C94AB0C0C94F60C5F3F37
:10178000E4F3983ED4F3869577956795B795F795EA
:101790009F5FC9F7880F911D9695879597F90895D2
:1017A000E1E0660F771F881FBB1F6217730784076E
:1017B000BA0720F0621B730B840BBA0BEE1F88F77D
:1017C000E09508950E94DB0C88F09F5798F0B92FA0
:1017D0009927B751B0F0E1F0660F771F881F991F66
:1017E0001AF0BA95C9F714C0B13091F00E94F50C07
:1017F000B1E008950C94F50C672F782F8827B85F17
:1018000039F0B93FCCF3869577956795B395D9F7BD
:1018100086F70C94750D97FB16F40E94540A0C94ED
:101820004A0CE89404C097FB16F40E94750D9923A6
:10183000A9F0F92F96E9BB279395F69587957795AB
:101840006795B795F111F8CFFAF4BB0F11F460FF6B
:101850001BC06F5F7F4F8F4F9F4F16C0882311F0C3
:1018600096E911C0772321F09EE8872F762F05C0D7
:10187000662371F096E8862F70E060E02AF09A9572
:10188000660F771F881FDAF7880F9695879597F967
:101890000895E894F92F96EBFF2381F012161306B2
:1018A0001406440B9395F69587957795679557950C
:1018B0004040FF23B9F71BC099270895882351F4AE
:1018C0009850D2F7872B762F652F542F432F322F26
:1018D00020E0B1F3121613061406440B88233AF0E5
:1018E0009A95440F551F661F771F881FCAF7552307
:1018F0004AF4440F551F11F460FF04C06F5F7F4F1F
:101900008F4F9F4F880F9695879597F90895990F58
:101910000008550FAA0BE0E8FEEF16161706E807B9
:10192000F907C0F012161306E407F50798F0621BDA
:10193000730B840B950B39F40A2661F0232B242BAF
:10194000252B21F408950A2609F4A140A6958FEFCE
:10195000811D811D089597F99F6780E870E060E020
:1019600008959FEF80EC089500240A941616170638
:1019700018060906089500240A9412161306140680
:1019800005060895092E0394000C11F4882352F0E3
:10199000BB0F40F4BF2B11F460FF04C06F5F7F4F9B
:1019A0008F4F9F4F089557FD9058440F551F59F082
:1019B0005F3F71F04795880F97FB991F61F09F3F3C
:1019C00079F087950895121613061406551FF2CF65
:1019D0004695F1DF08C0161617061806991FF1CFB5
:1019E00086957105610508940895E894BB276627DC
:1019F0007727CB0197F908950E94870C08F48FEFA1
:101A000008950E94140D0C94C20C0E94B40C38F07E
:101A10000E94BB0C20F0952311F00C94AB0C0C949D
:101A2000B10C11240C94F60C0E94D30C70F3959F0A
:101A3000C1F3950F50E0551F629FF001729FBB27C5
:101A4000F00DB11D639FAA27F00DB11DAA1F649F61
:101A50006627B00DA11D661F829F2227B00DA11D14
:101A6000621F739FB00DA11D621F839FA00D611D9A
:101A7000221F749F3327A00D611D231F849F600DBB
:101A8000211D822F762F6A2F11249F5750409AF0E4
:101A9000F1F088234AF0EE0FFF1FBB1F661F771F70
:101AA000881F91505040A9F79E3F510580F00C943B
:101AB000AB0C0C94F60C5F3FE4F3983ED4F38695A0
:101AC00077956795B795F795E7959F5FC1F7FE2BDB
:101AD000880F911D9695879597F90895DC0101C0AF
:101AE0006D9341505040E0F7089590958095709522
:0E1AF00061957F4F8F4F9F4F0895F894FFCF61
:101AFE0053656E736F72732072656164696E67737E
:101B0E00202D2D2052656672657368696E6720659B
:101B1E007665727920006D730D0A0046432D3232C0
:101B2E0020416E616C6F6720284144432920526525
:101B3E006164696E67733A0D0A0009474153206369
:101B4E00757272656E743A200009474153206D69B3
:101B5E006E3A20202020200009474153206D6178E5
:101B6E003A202020202000424D503238302052653D
:101B7E006164696E67733A0D0A000954656D70658C
:101B8E007261747572652063757272656E743A2037
:101B9E00002043000954656D70657261747572653D
:101BAE00206D696E3A2020202020000954656D704A
:101BBE0065726174757265206D61783A20202020FF
:101BCE0020000950726573737572652063757272A9
:101BDE00656E743A2000206850610009507265737A
:101BEE0073757265206D696E3A20202020200009E1
:101BFE005072657373757265206D61783A2020207E
:101C0E0020200041485432302052656164696E676D
:101C1E00733A0D0A000948756D6964697479206319
:101C2E00757272656E743A2000202552480009487C
:101C3E00756D6964697479206D696E3A2020202073
:101C4E0020000948756D6964697479206D61783A70
:101C5E00202020202000414854323020524541445B
:101C6E00494E47204641494C45440D0A001B5B48EE
:0A1C7E00001B5B324A001B5B4B00A9
:00000001FF
